:100000000C9472000C9493000C9493000C94930045
:100010000C9493000C9493000C9493000C94930014
:100020000C9493000C9493000C9493000C94930004
:100030000C9493000C9493000C9493000C949300F4
:100040000C9493000C9493000C9493000C949300E4
:100050000C9493000C9493000C9493000C949300D4
:100060000C9493000C94E7000C9493000C94930070
:100070000C9493000C9493000C9493000C949300B4
:100080000C9493000C9493000C9493000C949300A4
:100090000C9493000C9493000C9493000C94930094
:1000A0000C9493000C9493000C9493000C94930084
:1000B0000C9493000C9493000C9493000C94930074
:1000C0000C9493000C9493000C9493000C94930064
:1000D0000C9493000C9493000C9493000C94930054
:1000E0000C94930011241FBECFEFD1E2DEBFCDBF31
:1000F00000E00CBF12E0A0E0B2E0EAEEF0E100E0C8
:100100000BBF02C007900D92A032B107D9F712E0E1
:10011000A0E2B2E001C01D92AA34B107E1F70E944B
:100120000B010C9473080C940000EF92FF920F9354
:100130001F93DF93CF930F92CDB7DEB77C01198267
:100140008E010F5F1F4F89E0B80141E050E00E942F
:10015000310289818823B9F7C70160E270E041E08C
:100160000E9417020E945D018823E1F30E94D501DD
:10017000882321F40E94D1018823A1F30E94D10198
:100180008823B1F4809127029091280201969093E0
:1001900028028093270224E08030920780F010929A
:1001A00028021092270280E092E00E94380807C0DF
:1001B0000E94EF010E94FB038AE20E94E5070F9074
:1001C000CF91DF911F910F91FF90EF9008951F92B3
:1001D0000F920FB60F9211240F900FBE0F901F9029
:1001E0001895EAE0F1E080818260808380818160FF
:1001F0008083EBE0F1E08081816080830E94BF0713
:1002000008950E94F1000E94D60780E060E241E07C
:100210000E946E070895DF93CF930F920F92CDB790
:10022000DEB71A8219820E94010178940E94D607D3
:100230008CE092E00E9438080E94EF0181E48093F4
:10024000290282E480932A0283E480932B0289E2CC
:1002500092E00E949500FBCFEBE0F1E080818D7F82
:10026000808308950E942C010895EBE0F1E08081E5
:100270008260808308950E94350185E38A95F1F7B5
:1002800000000E942C0108950E943501089590916C
:100290000B0181E091FF80E00895EBE0F1E08081C7
:1002A0008E7F80830895EBE0F1E080818160808320
:1002B000089580910B018170089581E0489980E054
:1002C000089590E08E709070959587950895DF92CF
:1002D000EF92FF920F931F93CF93DF93EB01D42EF6
:1002E000082F192FEE24FF2412C0DD2039F0F80169
:1002F00080810E94D007F801808304C0F8018081CA
:100300000E94D0070894E11CF11C0F5F1F4FEC16F0
:10031000FD0658F3DF91CF911F910F91FF90EF9061
:10032000DF900895EF92FF920F931F93DF93CF9387
:1003300000D0CDB7DEB77B018A012B838A830E9470
:100340004D018A818983CE01019661E070E041E030
:100350000E946701C701B8012B81422F0E946701EB
:100360000E94530189810F900F900F90CF91DF91E0
:100370001F910F91FF90EF9008958FEF60E070E074
:1003800040E050E021E00E94920108950E94BD01EA
:1003900008950E94BD0190E08E70907095958795AC
:1003A00008950E94BD01807108950E94BD01807270
:1003B00008950E94BD018074089583EE60E070E0AE
:1003C00040E050E021E00E949201089582EE60E05A
:1003D00070E040E050E021E00E949201089581EE3B
:1003E00060E070E040E050E021E00E94920108955A
:1003F000EF92FF920F931F93DF93CF930F92CDB79E
:10040000DEB78C017B010E942C0181E6B801A701B7
:1004100021E00E94920189830E94350189810F9019
:10042000CF91DF911F910F91FF90EF9008951F934F
:10043000DF93CF930F92CDB7DEB7FC019B01142F52
:1004400080EABF01A90120E00E949201113021F44D
:1004500089830E943B0189810F90CF91DF911F9189
:1004600008958F7121E00E9492010895AF92BF928A
:10047000CF92DF92EF92FF920F931F93DF93CF9370
:1004800000D00F920F92CDB7DEB75C01EE24FF24AF
:1004900000E010E06E010894C11CD11C802FB60151
:1004A00045E050E00E943102D601F501EE0DFF1D3E
:1004B00080E090E098012A50304008C0009731F069
:1004C0002230310518F00031110549F44D91419366
:1004D0000894E11CF11C01968530910579F70F5FB6
:1004E0001F4F08311105D1F60F900F900F900F900C
:1004F0000F90CF91DF911F910F91FF90EF90DF90C0
:10050000CF90BF90AF900895DF93CF930F92CDB768
:10051000DEB787E1BE016F5F7F4F41E050E00E9490
:100520003102898181700F90CF91DF910895DF931F
:10053000CF930F92CDB7DEB787E1BE016F5F7F4FDC
:1005400041E050E00E943102898182700F90CF918A
:10055000DF910895DF93CF930F92CDB7DEB787E198
:10056000BE016F5F7F4F41E050E00E943102898100
:1005700080710F90CF91DF910895DF93CF930F9209
:10058000CDB7DEB787E1BE016F5F7F4F41E050E03E
:100590000E943102898180720F90CF91DF9108957E
:1005A000DF93CF930F92CDB7DEB787E1BE016F5FC8
:1005B0007F4F41E050E00E943102898180740F90AA
:1005C000CF91DF910895DF93CF930F92CDB7DEB730
:1005D00087E1BE016F5F7F4F41E050E00E94310232
:1005E00089810F90CF91DF910895DF93CF930F9280
:1005F000CDB7DEB789E0BE016F5F7F4F41E050E0CD
:100600000E94310289810F90CF91DF9108951F934D
:10061000DF93CF930F92CDB7DEB7182F863090F4CB
:1006200082E0BE016F5F7F4F41E050E00E943102E7
:1006300021E030E002C0220F331F1A95E2F78981D2
:10064000822301C080E00F90CF91DF911F91089528
:100650001F93DF93CF930F92CDB7DEB7182F86305D
:1006600090F481E0BE016F5F7F4F41E050E00E9457
:10067000310221E030E002C0220F331F1A95E2F769
:100680008981822301C080E00F90CF91DF911F917B
:100690000895DF93CF930F92CDB7DEB788E0BE0108
:1006A0006F5F7F4F41E050E00E94310289818F707F
:1006B0000F90CF91DF910895DF93CF930F92CDB735
:1006C000DEB788E0BE016F5F7F4F41E050E00E94DF
:1006D0003102898182958F700F90CF91DF910895BB
:1006E000DF93CF930F92CDB7DEB788E0BE016F5F87
:1006F0007F4F41E050E00E94310289810F90CF91FD
:10070000DF910895DF93CF930F92CDB7DEB785E0E9
:10071000BE016F5F7F4F41E050E00E94310289814E
:100720000F90CF91DF910895DF93CF930F92CDB7C4
:10073000DEB780E0BE016F5F7F4F41E050E00E9476
:10074000310289810F90CF91DF910895DF93CF938C
:100750000F92CDB7DEB7863050F48F5EBE016F5F6B
:100760007F4F41E050E00E943102898101C080E06A
:100770000F90CF91DF9108958F71806220E00E94E9
:1007800092010895DF93CF930F92CDB7DEB780E14A
:10079000898387E0BE016F5F7F4F41E050E00E9498
:1007A000BC030F90CF91DF910895DF93CF930F9209
:1007B000CDB7DEB780E2898387E0BE016F5F7F4FF0
:1007C00041E050E00E94BC030F90CF91DF9108956B
:1007D000DF93CF930F92CDB7DEB780E4898387E0B4
:1007E000BE016F5F7F4F41E050E00E94BC030F905D
:1007F000CF91DF910895DF93CF930F92CDB7DEB7FE
:1008000080E7898387E0BE016F5F7F4F41E050E062
:100810000E94BC030F90CF91DF9108950E94E601E2
:100820000E94EF010E94FB030895FF920F931F9314
:10083000DF93CF930F92CDB7DEB7F82E863020F539
:1008400082E08E010F5F1F4FB80141E050E00E942F
:1008500031028981282F30E00F2C02C03595279571
:100860000A94E2F720FF10C021E030E002C0220F1E
:10087000331FFA94E2F720952823298382E0B801F8
:1008800041E050E00E94BC030F90CF91DF911F9197
:100890000F91FF900895FF920F931F93DF93CF93D3
:1008A0000F92CDB7DEB7F82E863018F582E08E01B4
:1008B0000F5F1F4FB80141E050E00E943102898173
:1008C000482F50E00F2C02C0559547950A94E2F747
:1008D00040FD0FC021E030E002C0220F331FFA9428
:1008E000E2F7282B298382E0B80141E050E00E9422
:1008F000BC030F90CF91DF911F910F91FF9008954E
:10090000FF920F931F93DF93CF930F92CDB7DEB774
:10091000F82E863020F581E08E010F5F1F4FB80161
:1009200041E050E00E9431028981282F30E00F2CF5
:1009300002C0359527950A94E2F720FF10C021E008
:1009400030E002C0220F331FFA94E2F720952823EB
:10095000298381E0B80141E050E00E94BC030F9080
:10096000CF91DF911F910F91FF900895FF920F9308
:100970001F93DF93CF930F92CDB7DEB7F82E86305B
:1009800018F581E08E010F5F1F4FB80141E050E084
:100990000E9431028981482F50E00F2C02C05595EA
:1009A00047950A94E2F740FD0FC021E030E002C015
:1009B000220F331FFA94E2F7282B298381E0B80134
:1009C00041E050E00E94BC030F90CF91DF911F9156
:1009D0000F91FF900895DF93CF930F92CDB7DEB7BD
:1009E000898385E0BE016F5F7F4F41E050E00E9448
:1009F000BC030F90CF91DF9108950F931F93DF9366
:100A0000CF930F92CDB7DEB785E08E010F5F1F4FFA
:100A1000B80141E050E00E94310285E0B80141E0B8
:100A200050E00E94BC030F90CF91DF911F910F9176
:100A30000895DF93CF930F92CDB7DEB78F77898379
:100A400085E0BE016F5F7F4F41E050E00E94BC0334
:100A50000F90CF91DF910895DF93CF930F92CDB791
:100A6000DEB7898380E0BE016F5F7F4F41E050E0D9
:100A70000E94BC030F90CF91DF910895DF93CF9335
:100A80000F92CDB7DEB78983663058F4813248F4CF
:100A9000862F8F5EBE016F5F7F4F41E050E00E9466
:100AA000BC030F90CF91DF910895FC019B0146306C
:100AB00030F4842F865FBF01A9010E94BC03089512
:100AC0009C01AB0180E1B9010E94BC0308950F9322
:100AD0001F93DF93CF930F92CDB7DEB780E08E01E7
:100AE0000F5F1F4FB80141E050E00E943102898141
:100AF00080FF0AC08E7F898380E0B80141E050E02A
:100B00000E94BC030E942C010F90CF91DF911F9196
:100B10000F910895FF920F931F93DF93CF930F923E
:100B2000CDB7DEB7F82E80E08E010F5F1F4FB80102
:100B300041E050E00E943102898180FD0FC0816058
:100B4000898380E0B80141E050E00E94BC03FF20AF
:100B500019F00E94350102C00E942C010F90CF9124
:100B6000DF911F910F91FF900895DF93CF930F9224
:100B7000CDB7DEB78D7F898380E0BE016F5F7F4F89
:100B800041E050E00E94BC030E942C010F90CF91E5
:100B9000DF9108950F931F93DF93CF930F92CDB7FB
:100BA000DEB780E08E010F5F1F4FB80141E050E0DB
:100BB0000E943102898181FF0AC08D7F898380E094
:100BC000B80141E050E00E94BC030E942C010F904C
:100BD000CF91DF911F910F9108951F93DF93CF93D2
:100BE0000F92CDB7DEB7182F6260698380E0BE0137
:100BF0006F5F7F4F41E050E00E94BC038FE697E1BA
:100C00000197F1F700C00000898180FF05C0112322
:100C100019F00E94350102C00E942C010F90CF9163
:100C2000DF911F910895682F6E7F61FF04C080E0FF
:100C30000E94ED050895862F0E94B5050895616014
:100C400061FF03C00E94ED050895862F0E94B5053F
:100C50000895FF920F931F93DF93CF930F92CDB719
:100C6000DEB7F82E80E08E010F5F1F4FB80141E024
:100C700050E00E943102898181FD18C08260898321
:100C800080E0B80141E050E00E94BC038FE697E1AC
:100C90000197F1F700C00000898180FF05C0FF20A7
:100CA00019F00E94350102C00E942C010F90CF91D3
:100CB000DF911F910F91FF9008951F93DF93CF93C2
:100CC0000F92CDB7DEB76983882311F418E001C015
:100CD00019E081E1BE016F5F7F4F41E050E00E946B
:100CE000BC0381E0612F0E94ED050F90CF91DF9151
:100CF0001F9108954F925F926F927F928F929F9271
:100D0000AF92BF92CF92DF92EF92FF920F931F9319
:100D1000DF93CF9300D000D0CDB7DEB7D82EB62E5C
:100D2000F02E6A8C7B8C48A059A0498381E08E010B
:100D30000F5F1F4FB80141E050E02E830E94BC03BB
:100D40002E81298382E0B80141E050E00E94BC037B
:100D5000F98283E0B80141E050E00E94BC03E982DF
:100D600084E0B80141E050E00E94BC03C98285E004
:100D7000B80141E050E00E94BC03A98286E0B801BE
:100D800041E050E00E94BC038114910411F0C401C1
:100D900007C087EE89838A838B838C838D83C80108
:100DA00065E070E040E00E9455056114710411F0A7
:100DB000C30108C082EC89838A838B838C838D83F3
:100DC000CE01019665E070E041E00E9455058C8DF2
:100DD00089838E010F5F1F4FC80161E070E042E020
:100DE0000E9455058D8D8983C80161E070E043E064
:100DF0000E9455058E8D8983C80161E070E044E052
:100E00000E9455058F8D8983C80161E070E045E03F
:100E10000E9455054114510411F0C20107C087EE2C
:100E200089838A838B838C838D83C80165E070E01E
:100E30000E9460058AA1898381E18E010F5F1F4FA7
:100E4000B80141E050E00E94BC038BA1898382E19C
:100E5000B80141E050E00E94BC038CA1898383E18A
:100E6000B80141E050E00E94BC038DA1898384E178
:100E7000B80141E050E00E94BC038EA1898385E166
:100E8000B80141E050E00E94BC038FA1898386E154
:100E9000B80141E050E00E94BC03D1FE05C08B2D9B
:100EA0006D2D0E94ED0503C08D2D0E94B50526967F
:100EB0000FB6F894DEBF0FBECDBFCF91DF911F916B
:100EC0000F91FF90EF90DF90CF90BF90AF909F90E9
:100ED0008F907F906F905F904F9008958F929F9228
:100EE000AF92CF92EF920F9391E0442309F490E0F8
:100EF000813011F08AE001C08BE0F9E18F2EF2E041
:100F00009F2E2DB73EB72E5030400FB6F8943EBFFF
:100F10000FBE2DBFEDB7FEB73196ADB7BEB7129677
:100F20001C921E92119723EC228324EC238325EC40
:100F3000248326EC25839782868260871186128619
:100F400013861486158661E0492F23E003E0E3E071
:100F5000EE2E77E0C72E5FE0A52E0E947A062DB711
:100F60003EB7225F3F4F0FB6F8943EBF0FBE2DBF76
:100F70000F91EF90CF90AF909F908F90089584B194
:100F8000807F84B984B1876084B981E58CBD81E0BC
:100F90008DBD8FE39CE90197F1F700C00000089533
:100FA0008EBD0DB407FEFDCF8EB508951092C5001D
:100FB00080E18093C40088E98093C10086E080933B
:100FC000C20082E08093C00008959091C00095FF18
:100FD000FCCF8093C6000895EF92FF920F931F936A
:100FE000DF93CF9300D00F920F92CDB7DEB78C0175
:100FF00097FF07C08DE20E94E507109501951F4FEE
:1010000009C0009721F480E30E94E50725C080E233
:101010000E94E507FE01319685E0DF011D928A9569
:10102000E9F72AE030E0C801B9010E944C08819339
:101030008B0161157105B9F78E010A5F1F4F7E01A3
:101040000894E11CF11CF80182918F01805D0E94DF
:10105000E5070E151F05B9F70F900F900F900F9031
:101060000F90CF91DF911F910F91FF90EF90089516
:10107000EF92FF92CF93DF93E82EE7017E01F92EE6
:10108000E70102C00E94E50789918823D9F7DF9123
:10109000CF91FF90EF90089597FB092E07260AD075
:1010A00077FD04D00CD006D000201AF4709561951D
:1010B0007F4F0895F6F7909581959F4F0895AA1B4D
:1010C000BB1B51E107C0AA1FBB1FA617B70710F033
:1010D000A61BB70B881F991F5A95A9F78095909565
:0A10E000BC01CD010895F894FFCF84
:1010EA0033324B422073656E74210A0043484950DB
:1010FA00205245534554210A0056494E4F44000098
:00000001FF
